:100000000C940E010C9436010C9436010C943601BC
:100010000C9436010C9436010C9436010C94D814CF
:100020000C9436010C9436010C9436010C94360174
:100030000C9436010C9436010C9436010C94360164
:100040000C946F130C9436010C943D130C941713FD
:100050000C9436010C9436010C9436010C94360144
:100060000C94B9130C943601000000080002010042
:1000700000030407000000000000000020202048CA
:100080007A3A2020302E303120302E31202031207D
:1000900020203130202031303020314B20203130B1
:1000A0006B0020446F776E3A2020202061202020B2
:1000B0007320202064202020762020206220202011
:1000C0006E2020206D0020202055703A2020202016
:1000D00071202020772020206520202066202020ED
:1000E00067202020682020206A00554B3B202F2FBE
:1000F000205361766520436F7272656374696F6E19
:1001000020616E64207265626F6F7400555058589C
:10011000583B202F2F2053657420536935333531D8
:100120004120504C4C2066726571756E6379206970
:100130006E204D487A20284578616D706C653A20B4
:1001400055503930303B20666F72203930304D6861
:100150007A2900554358585858583B202F2F205380
:100160006574205369353335314120437279737496
:10017000616C2066726571756E637920696E206BA3
:10018000487A20284578616D706C653A2055433275
:10019000373030303B20666F722032373030306B72
:1001A000487A290052543B202F2F205265736574E2
:1001B00020454550524F4D2073657474696E672019
:1001C000746F2064656661756C742076616C75650A
:1001D0007320616E64207265626F6F7400000000AE
:1001E00000250028002B0000000000240027002A22
:1001F00000040404040404040402020202020203D0
:1002000003030303030102040810204080010204D9
:10021000081020010204081020001A1511241FBE26
:10022000CFEFD4E0DEBFCDBF12E0A0E0B1E0EAE85E
:10023000F8E302C005900D92A830B107D9F724E089
:10024000A8E0B2E001C01D92A431B207E1F711E0CD
:10025000CEE0D1E004C02197FE010E94721ACD3099
:10026000D107C9F70E945E150C94431C0C94000042
:100270008091720290917302891B990B08952F92BD
:100280003F924F925F926F927F928F929F92AF9226
:10029000BF92CF92DF92EF92FF920F931F93CF9373
:1002A000DF93CDB7DEB76C970FB6F894DEBF0FBE05
:1002B000CDBF322E3D87242E5E872B013C01A982C3
:1002C000BF86C88AD98AEA8AFB8A0C8B1D8B988ED6
:1002D0008F8A211501EC30070AE140070DE3500732
:1002E00005E0600771058105910509F0A0F52F373C
:1002F00010EF31071AEF410712E051076105710550
:100300008105910509F008F4B4C12F3F354D4141F5
:100310005E47634071058105910509F008F48FC0BF
:1003200029813F85488959896A897B898C899D897A
:10033000A0E0992493940E94371C09F08EC011E02C
:100340001E8B94E0892E912CA12CB12C89869A8643
:10035000AB86BC862FC0312CB1ECBD872AE1222EA2
:10036000EDE3EE8735E0432E512C612C712CD8CF74
:10037000A32CBD84C22CDE847201830120E034E012
:100380004BE654EF64E170E080E090E00E94481B8F
:10039000122FB32FF42FE52FA7E00E94371C21F472
:1003A00016E0B0E0F0E0E0E0CF011987BA879B8764
:1003B000EC871E8A89849A84AB84BC84A50194014D
:1003C00060E070E0CB01A32CBD84C22CDE847201FE
:1003D000830129833A834B835C836D837E838F8380
:1003E000988760E070E080E090E00E94921A298394
:1003F0003F87488B598B6A8B7B8B8C8B9D8B0E89AF
:10040000C12CD12C7601C39440E050E0BA010130F8
:1004100009F0A9C0AF89B88D1D921D921D921C9242
:100420001397FD01148215821682178281E090E0F5
:10043000A0E0B0E080879187A287B387DEC02981E2
:100440003F85488959896A897B898C899D89A0E083
:100450000E94371C09F48CCF912CA32CBD84C22C94
:10046000DE847201830129813F85488959896A891F
:100470007B898C899D890E94481B29873A874B87F5
:100480005C8729853A854B855C8506E0A02EB12CDA
:10049000263031054105510568F089859A85AB857F
:1004A000BC8589309740A105B105D0F0B8E0AB2EEE
:1004B00017E0B12EC12CD12CE12CF12C00E010E082
:1004C00029813F85488959896A897B898C899D89D9
:1004D0000E94481B322E3D87242E5E872B013C0153
:1004E000A32CBD84C22CDE847201830129813F8547
:1004F000488959896A897B898C899D890E94461B14
:10050000E0E4AE2EF2E4BF2EAFE0CA2ED12CE12CF7
:10051000F12C00E010E00E94921AA32CBD84C22CA2
:10052000DE84720183010E94481BA32FF42FE52F64
:10053000422F5A2F6F2F7E2FA0E4CA2EA2E4DA2E6C
:10054000AFE0EA2EF12C411551056105710521F44A
:10055000C12CD12C7601C394AA24A3949A1409F433
:100560006DC001E00E8BCB01BA0117E0660F771F5B
:10057000881F991F1A95D1F7A70196010E94311A79
:10058000298F3A8F4B8F5C8F89849A84AB84BC848B
:1005900007E0880C991CAA1CBB1C0A95D1F7950191
:1005A000840112502109310948015901298D3A8DE0
:1005B0004B8D5C8D280D391D4A1D5B1DAF89B88D93
:1005C0002D933D934D935C931397FD016483758345
:1005D000868397831896CD92DD92ED92FC921B97BD
:1005E0008E88882051F039829D849F86288AAE8427
:1005F000A98A4A8A5B8A6C8A7D8A29813F854889D3
:1006000059896A897B898C899D896C960FB6F89483
:10061000DEBF0FBECDBFDF91CF911F910F91FF9035
:10062000EF90DF90CF90BF90AF909F908F907F9092
:100630006F905F904F903F902F900895AF89B88D45
:100640001D921D921D921C921397FD01148215821A
:100650001682178281E090E0A0E0B0E08087918769
:10066000A287B3873982FD85FF87288A8E84898A8D
:10067000C0CF29813F85488959896A897B898C89BE
:100680009D89A0E0E0E83E2EF0EFFD87FAEF2F2EE7
:1006900002E00E87412C512C612C712C0E94371CDA
:1006A00009F0DACE18E0B7E07DCEDF92EF92FF924C
:1006B0000F931F93CF93DF93FC01E080F1800281C1
:1006C0001381D481C581B681D7809701A8016D2F90
:1006D0007C2F8B2F9D2D20583A41464051096109AE
:1006E0007109810991092F373A4146405105610549
:1006F00071058105910509F0D0F49701A8016D2FCE
:100700007C2F8B2F9D2D07E00E94EC1B20833183D3
:1007100042835383648375838683978387E0DF9165
:10072000CF911F910F91FF90EF90DF900895970167
:10073000A8016D2F7C2F8B2F9D2D35534C405109D7
:1007400061097109810991092F3F34434C405105DA
:10075000610571058105910509F098F49701A801DB
:100760006D2F7C2F8B2F9D2D06E00E94EC1B20838C
:10077000318342835383648375838683978386E0C2
:10078000CECF9701A8016D2F7C2F8B2F9D2D3A5630
:100790004841510961097109810991092F3F394681
:1007A00048415105610571058105910509F098F4ED
:1007B0009701A8016D2F7C2F8B2F9D2D05E00E94A6
:1007C000EC1B208331834283538364837583868348
:1007D000978385E0A4CF9701A8016D2F7C2F8B2FE5
:1007E0009D2D345D404351096109710981099109C9
:1007F0002F3F334D4043510561057105810591053A
:1008000009F098F49701A8016D2F7C2F8B2F9D2D57
:1008100004E00E94EC1B2083318342835383648372
:1008200075838683978384E07ACF9701A8016D2F23
:100830007C2F8B2F9D2D385A414651096109710932
:10084000810991092F3F374A4146510561057105DC
:100850008105910509F098F49701A8016D2F7C2F6F
:100860008B2F9D2D03E00E94EC1B2083318342835C
:100870005383648375838683978383E050CF970186
:10088000A8016D2F7C2F8B2F9D2D3055434C510986
:1008900061097109810991092F3F3F44434C51057A
:1008A000610571058105910509F098F49701A8018A
:1008B0006D2F7C2F8B2F9D2D02E00E94EC1B20833F
:1008C000318342835383648375838683978382E075
:1008D00026CF9701A8016D2F7C2F8B2F9D2D305A8D
:1008E0004648514061097109810991092F3F3F49EB
:1008F00046485140610571058105910509F098F45C
:100900009701A8016D2F7C2F8B2F9D2D01E00E9458
:10091000EC1B2083318342835383648375838683F6
:10092000978381E0FCCE80E0FACE2F923F924F92E7
:100930005F926F927F928F929F92AF92BF92CF926F
:10094000DF92EF92FF920F931F93CF93DF93CDB778
:10095000DEB7A6970FB6F894DEBF0FBECDBF0D87EA
:100960001D8B2E8B3F8B488F5B8F1B01FA8EE98E80
:10097000892B09F0C5C1E091F603F091F703FF2739
:10098000EE0FFF1FEE0FFF1FE650FC4F60817181DD
:100990008281938124E630E040E050E00E94EA1A30
:1009A000522E632E742E852E962E7A8B898B492E8D
:1009B00086017501110FEE08FE2C87019501A60135
:1009C0006E2D7E2D8E2D9E2D0FE10E94EC1BA12CF5
:1009D0001AECB12E0AE9C02EEBE3DE2EE12CF12C4D
:1009E00000E010E00E94171BA52CB62CC72CD82CB9
:1009F000E92CFA880989142D0E94921A0FE10E94AD
:100A0000071C29833A834B835C836D837E838F83AA
:100A10009887E980FA800B811C81110FEE08FE2C6B
:100A20008701E986FA860B871C87252D362D472DF1
:100A3000582D692D7A898989942DA980BA80CB8017
:100A4000DC80E984FE2C0E2D1E2D0E94221C2DA37D
:100A50003EA349835987698B7A8B8B8B9C8B4D8402
:100A60005D886E887F88888C9B8C9201A301B4017D
:100A7000C101211534404B46544F64417105810535
:100A8000910569F060F0412C44E0542E5BE6652E40
:100A900064EF762E74E1872E912C212C312C92015B
:100AA000A301B401C101211538454744584F6D4099
:100AB00071058105910560F4412C88E5582E97E475
:100AC000692E28EF722E3DE0832E912C212C312CA3
:100AD000ADA0BEA0C980D984E988FA880B891C8999
:100AE0009201A301B401C1010E94481B2D8B3E8BD2
:100AF0004F8B588F2D873E874F87588B8D859E85CE
:100B0000AF85B8890FE0A02E0F97A105B10558F069
:100B10008D859E85AF85B8898B359105A105B10579
:100B2000B8F01AE5A12EB12CC12CD12CE12CF12C5E
:100B300000E010E02DA13EA14981598569897A899B
:100B40008B899C890E94921A29013A014B011C0150
:100B5000ADA0BEA0C980D984E988FA880B891C8918
:100B60009201A301B401C1010E94461BF0E4AF2E23
:100B7000A2E4BA2EBFE0CB2ED12CE12CF12C00E068
:100B800010E00E94921AADA0BEA0C980D984E98865
:100B9000FA880B891C890E94481B19014A01C90166
:100BA000D401412C512C320143940097A105B10589
:100BB00039F070E4472E72E4572E7FE0672E712CD7
:100BC000BC01CD0127E0660F771F881F991F2A956A
:100BD000D1F7A30192010E94311A6B8F7C8F8D8F08
:100BE0009E8F8D859E85AF85B88967E0880F991F98
:100BF000AA1FBB1F6A95D1F79250A109B1097C01C8
:100C00008D01E20EF31E041F151FED86FE860F8771
:100C1000188BADA0BEA0C980D984E988FA880B8959
:100C20001C899101A40160E070E080E090E00E94E6
:100C3000921A2F8F38A349A35AA36BA37CA31C013C
:100C40008D859E85AF85B889E98DFA8D80839183E6
:100C5000A283B383EB8CFC8C0D8D1E8DE482F58218
:100C6000068317834086518662867386E988FA88F0
:100C70000B891C892D893E894F89588D60E070E071
:100C800080E090E00E94921A29833987498B5A8B21
:100C90004B018B8B9D8752016301E12CF12C00E00D
:100CA00010E02F8D38A149A15AA16BA17CA1C101EF
:100CB0000E94481B59016A017B018C0129813985F9
:100CC00049895A89B4018B899D850E94221CA69668
:100CD0000FB6F894DEBF0FBECDBFDF91CF911F914D
:100CE0000F91FF90EF90DF90CF90BF90AF909F90CB
:100CF0008F907F906F905F904F903F902F900895CE
:100D0000E091F803F091F9033ACE90E0FC01EB5F3B
:100D1000FD4F24918F509E4FFC018491882399F0C0
:100D200090E0880F991FFC01E951FE4FA591B49105
:100D3000FC01E352FE4F859194918FB7F894EC91AA
:100D4000E22BEC938FBF089508950895AF92BF9260
:100D5000CF92DF92EF92FF920F931F93CF93DF9387
:100D60006C017B018B01040F151FEB015E01AE18B6
:100D7000BF08C017D10759F06991D601ED91FC91D8
:100D80000190F081E02DC6010995892B79F7C50105
:100D9000DF91CF911F910F91FF90EF90DF90CF9057
:100DA000BF90AF900895FC01538D448D252F30E006
:100DB000842F90E0821B930B541710F0CF96089568
:100DC00001970895FC01918D828D981761F0A28D95
:100DD000AE0FBF2FB11D5D968C91928D9F5F9F735B
:100DE000928F90E008958FEF9FEF0895FC01918D11
:100DF000828D981731F0828DE80FF11D858D90E07E
:100E000008958FEF9FEF0895FC01918D228D892F1A
:100E100090E0805C9F4F821B91098F739927089502
:100E200084EE92E00E94040721E0892B09F420E07F
:100E3000822F089580E090E0892B29F00E9410070E
:100E400081110C9400000895FC01A48DA80FB92F06
:100E5000B11DA35ABF4F2C91848D90E001968F73E2
:100E60009927848FA689B7892C93A089B1898C9101
:100E7000837080648C93938D848D981306C0028850
:100E8000F389E02D80818F7D80830895EF92FF921A
:100E90000F931F93CF93DF93EC0181E0888F9B8D9D
:100EA0008C8D98131AC0E889F989808185FF15C057
:100EB0009FB7F894EE89FF896083E889F98980817A
:100EC0008370806480839FBF81E090E0DF91CF9149
:100ED0001F910F91FF90EF900895F62E0B8D10E06B
:100EE0000F5F1F4F0F731127E02E8C8D8E110CC0DA
:100EF0000FB607FCFACFE889F989808185FFF5CF25
:100F0000CE010E942407F1CFEB8DEC0FFD2FF11DD8
:100F1000E35AFF4FF0829FB7F8940B8FEA89FB8961
:100F200080818062CFCFCF93DF93EC01888D8823BF
:100F3000B9F0AA89BB89E889F9898C9185FD03C03C
:100F4000808186FD0DC00FB607FCF7CF8C9185FF21
:100F5000F2CF808185FFEDCFCE010E942407E9CF3B
:100F6000DF91CF91089590E0FC01E859FF4F249163
:100F7000FC01EB5FFD4F3491FC01EF50FE4FE4911B
:100F8000EE23C9F0222339F0233001F1A8F42130F7
:100F900019F1223029F1F0E0EE0FFF1FE352FE4F6E
:100FA000A591B4918FB7F894EC91611126C030955A
:100FB0003E233C938FBF08952730A9F02830C9F015
:100FC000243049F7809180008F7D03C0809180009C
:100FD0008F7780938000DFCF84B58F7784BDDBCFA0
:100FE00084B58F7DFBCF8091B0008F778093B00068
:100FF000D2CF8091B0008F7DF9CF3E2BDACF3FB7B3
:10100000F8948091520290915302A0915402B091B1
:10101000550226B5A89B05C02F3F19F00196A11DCA
:10102000B11D3FBFBA2FA92F982F8827BC01CD0132
:10103000620F711D811D911D42E0660F771F881F91
:10104000991F4A95D1F708958F929F92AF92BF92C0
:10105000CF92DF92EF92FF920E94FF074B015C015B
:1010600080EDC82E87E0D82EE12CF12C0E94FF07DE
:10107000681979098A099B09683E734081059105C1
:10108000A8F321E0C21AD108E108F10888EE880E21
:1010900083E0981EA11CB11CC114D104E104F10429
:1010A00029F7FF90EF90DF90CF90BF90AF909F9087
:1010B0008F90089520912A02260F3327331F213263
:1010C0003105ECF42091BA02FC0190E080E024307C
:1010D00069F082E00895A0912A022191AC01465F57
:1010E0005D4FA40FB52FB11D2C930196861798F371
:1010F00080912A02680F60932A0280E0089581E0BF
:1011000008951092BA0281E08093B902109294027D
:1011100061E082E10E94B30761E083E10E94B307CE
:10112000E9EBF0E080818E7F808380818D7F8083FA
:1011300088E48093B80085E48093BC000895CF9341
:10114000DF9391E0909309028823B9F0C091B80031
:10115000D091BA008091BC008A7B8093BC0060E093
:1011600082E10E94B30760E083E10E94B3070E941E
:101170008108D093BA00C093B800DF91CF91089551
:101180008F929F92AF92BF92CF92DF92EF92FF9297
:101190000F931F93CF93DF93D091E302D13208F0E6
:1011A000D7C0182FC091E2020E94FF076B017C019B
:1011B0008091BA0281116BC082E08093BA021093D1
:1011C000B9028FEF8093B8021092B702D093B602A3
:1011D000A2ECB2E0E6E9F2E080E0D81391C0109210
:1011E000950280919502CC0FC82BC09395028091F7
:1011F0009402813009F088C0109294020E94FF0787
:101200006B017C01809195028093BB008091BC02B0
:101210009091BD02A091BE02B091BF02892B8A2B92
:101220008B2BA1F00E94FF070091BC021091BD0220
:101230002091BE023091BF026C197D098E099F0971
:10124000061717072807390708F442C08091BC0029
:1012500083FDD8CF85EC8093BC000E94FF076B0113
:101260007C018091BA02823009F450C08091B802AA
:101270008F3F09F46FC08091B802803209F46CC0CE
:101280008091B802803309F469C084E026C080915F
:10129000BC029091BD02A091BE02B091BF02892B09
:1012A0008A2B8B2B09F484CF0E94FF078090BC020D
:1012B0009090BD02A090BE02B090BF026C197D0953
:1012C0008E099F0986169706A806B90608F070CF02
:1012D0008091BB020E949F0885E01092C10210928B
:1012E000E3021092C002DF91CF911F910F91FF9006
:1012F000EF90DF90CF90BF90AF909F908F90089528
:101300009D9191938F5F69CF85EEA5CF8091BC02AF
:101310009091BD02A091BE02B091BF02892B8A2B91
:101320008B2B09F49ECF0E94FF070091BC02109105
:10133000BD022091BE023091BF026C197D098E0959
:101340009F09061717072807390708F08ACFC0CF6B
:1013500081E0C3CF80E0C1CF82E0BFCF83E0BDCFCB
:101360000895E091730280917202E81730F4F0E082
:10137000EC58FD4F808190E008958FEF9FEF089526
:1013800090917302809172022FEF3FEF981748F40B
:10139000E92FF0E0EC58FD4F208130E09F5F909303
:1013A0007302C9010895CF92DF92EF92FF920F93DB
:1013B0001F93CF93DF937C01CB018A012091C00260
:1013C000222389F0EB016B01C40ED51ECC15DD057F
:1013D00069F06991D701ED91FC910190F081E02DC8
:1013E000C7010995F3CF642F0E945A08C801DF9105
:1013F000CF911F910F91FF90EF90DF90CF900895C4
:10140000CF93DF931F92CDB7DEB769832091C002DF
:101410002223F9F02091E302203258F021E030E05D
:10142000FC013383228390E080E00F90DF91CF9125
:1014300008958091C102E82FF0E0EE53FD4F9981AD
:1014400090838F5F8093C1028093E30281E090E0FC
:10145000ECCF61E0CE0101960E945A08F7CFCF93FE
:10146000C62F90910B0421E02093C0029093E202DA
:101470001092C1021092E302682F81E893E00E946B
:10148000000A6C2F81E893E00E94000A81E0CF916E
:101490000C94C008EF92FF920F931F93CF93DF93AA
:1014A000062F7A0190910B0421E02093C0029093C3
:1014B000E2021092C1021092E302682F81E893E0E9
:1014C0000E94000AE70110E0CE018E199F098017E3
:1014D000910734F4699181E893E00E94000AF4CF07
:1014E00081E0DF91CF911F910F91FF90EF900C94CD
:1014F000C0082F923F924F925F926F927F928F928D
:101500009F92AF92BF92CF92DF92EF92FF920F9392
:101510001F93CF93DF93CDB7DEB7A2970FB6F894A2
:10152000DEBF0FBECDBF19013A014B0189A39AA3BB
:101530002801012B09F089C0E091F603F091F7032F
:10154000EE0FFF1FEE0FFF1FEE5FFB4FA080B1807D
:10155000C280D380CE0145967C0189019301AB0105
:1015600069A17AA190E080E00E9495048D8D9E8D06
:10157000AF8DB8A199838D8D9E8DAF8DB8A18A83D3
:101580008D899E89AF89B88D8A2F83708B838D89D1
:101590009E89AF89B88D9C838D899E89AF89B88DCE
:1015A0008D838D8D9E8DAF8DB8A12CE0B695A795BE
:1015B000979587952A95D1F7807F498D5A8D6B8DA8
:1015C0007C8D962F9F70892B8E83898D9A8DAB8D04
:1015D000BC8D9F83898D9A8DAB8DBC8D888741147E
:1015E000510409F04BC0AE014F5F5F4F68E08AE1E4
:1015F0000E944A0A2092E6033092E7036092E803D1
:101600007092E9038092EA039092EB0399A1909380
:10161000EC038AA18093ED03A2960FB6F894DEBF87
:101620000FBECDBFDF91CF911F910F91FF90EF9033
:10163000DF90CF90BF90AF909F908F907F906F90F2
:101640005F904F903F902F900895E091F803F091B4
:10165000F903EE0FFF1FEE0FFF1FEE5FFB4FA080A1
:10166000B180C280D380CE0145967C0181019A0170
:10167000AB0169A17AA181E090E076CF4A94452838
:1016800059F6AE014F5F5F4F68E082E20E944A0A5E
:101690002092EE033092EF036092F0037092F10318
:1016A0008092F2039092F30389A18093F4039AA1AC
:1016B0009093F503B1CF0F931F936093020470933F
:1016C00003048093040490930504E6EEF3E0208184
:1016D000318142815381648175818681978110E0D7
:1016E00000E00E94790AEEEEF3E020813181428130
:1016F0005381648175818681978101E010E00E94A9
:10170000790A1F910F91089590E080E00895CF929B
:10171000DF92EF92FF920F931F93CF9390910B0460
:1017200021E02093C0029093E2021092C102109235
:10173000E302682F81E893E00E94000A81E00E94A2
:10174000C008C0910B040E94FF076B017C018091CF
:10175000BA02811165C081E08093BA021092B90289
:101760009FEF9093B8021092B7021092B602809346
:10177000950280919502CC0FC82BC0939502809161
:101780009402813009F080C0109294020E94FF07F9
:101790006B017C01809195028093BB008091BC021B
:1017A0009091BD02A091BE02B091BF02892B8A2BFD
:1017B0008B2BA1F00E94FF070091BC021091BD028B
:1017C0002091BE023091BF026C197D098E099F09DC
:1017D000061717072807390708F443C08091BC0093
:1017E00083FDD8CF85EC8093BC000E94FF076B017E
:1017F0007C018091BA02813009F448C08091B7021F
:10180000C1E0811102C0C091B702E6E9F2E0A4E7AD
:10181000B2E080E08C1751F191919D938F5FFACFE8
:101820008091BC029091BD02A091BE02B091BF0216
:10183000892B8A2B8B2B09F48ACF0E94FF070091FA
:10184000BC021091BD022091BE023091BF026C1902
:101850007D098E099F09061717072807390708F021
:1018600076CF8091BB020E949F08C0E01092730265
:10187000C093720280E090917302C91749F181E828
:1018800093E00E94C009F7CF85EEADCF8091BC02F6
:101890009091BD02A091BE02B091BF02892B8A2B0C
:1018A0008B2B09F4A6CF0E94FF070091BC02109178
:1018B000BD022091BE023091BF026C197D098E09D4
:1018C0009F09061717072807390708F092CFC9CFD5
:1018D000CF911F910F91FF90EF90DF90CF900895DF
:1018E0001F93CF93DF93C62F142F855E9E4FFC016D
:1018F000D0818D2F0E94870B837811118C60F0E1CD
:10190000CF9FB0011124682B8D2FDF91CF911F91B4
:101910000C942F0ACF93DF93D62FC0E1C80F8C2FE2
:101920000E94870B682FD13031F460648C2FDF91D7
:10193000CF910C942F0A6F7BF9CF6F927F928F9289
:10194000AF92CF92DF92EF92FF920F931F93CF93BC
:10195000DF93CDB7DEB7A0970FB6F894DEBF0FBE0A
:10196000CDBF3C01CD8ADE8AEF8AF88E098F1A8FAF
:101970002B8F3C8F4D8F5E8F6F8F78A31FA58D8D22
:101980009E8DAF8DB8A199838D8D9E8DAF8DB8A1A1
:101990008A83862D880F880F880F845D0E94870BAD
:1019A0004D895E896F89788D962F93708C7F982BE7
:1019B0009B838D899E89AF89B88D9C838D899E89F3
:1019C000AF89B88D8D838D8D9E8DAF8DB8A12CE0A4
:1019D000B695A795979587952A95D1F7807F498DDC
:1019E0005A8D6B8D7C8D962F9F70892B8E83898D60
:1019F0009A8DAB8DBC8D9F83898D9A8DAB8DBC8D5F
:101A00008887AE014F5F5F4F68E081E06816710420
:101A100029F182E06816710471F18AE20E944A0A93
:101A20006A2D90E080E00E948A0C412F682D90E0A2
:101A300080E00E94700CA0960FB6F894DEBF0FBE37
:101A4000CDBFDF91CF911F910F91FF90EF90DF906D
:101A5000CF90AF908F907F906F90089582E30E9417
:101A60004A0A6A2D81E090E00E948A0C412F682D7D
:101A700081E090E0DECF8AE30E944A0A6A2D82E08C
:101A800090E00E948A0C412F682D82E090E0D1CF37
:101A9000CF93DF93D82FC62F83E00E94870B61E09E
:101AA00070E001C0660FDA95EAF7C13039F460954D
:101AB000682383E0DF91CF910C942F0A682BF9CF34
:101AC0002F923F924F925F926F927F928F929F924E
:101AD000AF92BF92CF92DF92EF92FF920F931F933C
:101AE000CF93DF93CDB7DEB7E1970FB6F894DEBFA3
:101AF0000FBECDBFE22E29A3F32E3AA34BA35CA3C6
:101B00006DA37EA38FA398A7702E612E9701AFEFD0
:101B10000E942B1C2E373A41464051056105710544
:101B20008105910509F058F480E889A38AE18AA328
:101B300086E08BA31CA21DA21EA21FA218A629A18B
:101B40003AA14BA15CA16DA17EA18FA198A5211501
:101B5000314C4A415D43654071058105910569F04D
:101B600060F019A281EC8AA38AE18BA38DE38CA398
:101B700085E08DA31EA21FA218A6D9A04AA05BA033
:101B8000ACA0EDA0FEA00FA118A5272C362C2D2D62
:101B9000342D452D5A2DB701C8012115344E4B4027
:101BA0005445624071058105910509F008F427C18B
:101BB000F12CE12C8101000F111F0A561C4FC701A7
:101BC000B3E0880F991FBA95E1F783579C4FFC014A
:101BD0007996DC0159962C9131814281538164813F
:101BE0007581868197812115344E4B405445624062
:101BF00071058105910589F080F07E1471F0F7017F
:101C0000EE0FFF1FE357FC4F21853285F8018081DD
:101C100091812817390709F469C1FFEFEF1AFF0A0C
:101C200023E0E216F10459F68101045F1B4FD8014D
:101C30008C91811108C061E0872D962D0E94480D7E
:101C400081E0F801808329A13AA14BA15CA16DA19B
:101C50007EA18FA198A5D101E3E0AA0FBB1FEA9551
:101C6000E1F7A357BC4FFD01799659962C93318328
:101C7000428353836483758386839783DE011D9635
:101C80004D01A12CB12CC12CD12CE12CF12C00E068
:101C900010E00E943F0129A73AA74BA75CA7562E48
:101CA000472E8DA79EA7C101880F991FFC01E357FE
:101CB000FC4F7F0101851285652D742D8DA59EA594
:101CC0000E94790A712C612C9701275F3F4F39AB35
:101CD00028AB830143E0000F111F4A95E1F703573A
:101CE0001C4FF8017996D80159962C913181428187
:101CF00053816481758186819781A0E00E94371CA1
:101D000009F463C0D301AA0FBB1FA357BC4F199698
:101D10002D913C91A8A9B9A98D919C9128173907BB
:101D200009F053C0D80159967C9161815281438159
:101D30003481258196818781798F6A8F5B8F4C8F63
:101D40003D8F2E8F9F8F88A3CE0149960E94550309
:101D50008FA7298D3A8D4B8D5C8D6D8D7E8DFE010B
:101D600031964F01A9A4BAA4CBA4DCA4E52CF42C91
:101D70000DA51EA58F8D98A10E943F01AA24A394B2
:101D8000298D3A8D4B8D5C8D6D8D7E8D8F8D98A1BB
:101D90002F3F354D41415E476340710581059105F7
:101DA00009F008F4A12CAF928FA4C980DA80EB80EF
:101DB000FC800D811E812F81388549855A856B8570
:101DC0007C85C3010E949D0C0F902FEF621A720A4E
:101DD00033E06316710409F07CCFF101EE0FFF1FB1
:101DE000E357FC4F8185928560E2009719F00197D7
:101DF00021F460E881EB0E942F0A80E078C0D101D5
:101E000093E0AA0FBB1F9A95E1F7A357BC4FFD01C2
:101E100079965996DC9241825282A382E482F582BD
:101E2000068317838101045F1B4FD8018C918111B8
:101E300008C061E0872D962D0E94480D81E0F801D1
:101E40008083CE0181960E945503582EF101EE0F3A
:101E5000FF1FE357FC4F0184F285E02D29A13AA131
:101E60004BA15CA16DA17EA18FA198A5EF2B51F58F
:101E7000A090E603B090E703C090E803D090E90398
:101E8000E090EA03F090EB030091EC031091ED0376
:101E9000DE011D964D010E943F011F92852CA12C51
:101EA000CD84DE84EF84F88809891A892B893C89DE
:101EB0004D895E896F89788D872D962D0E949D0CA6
:101EC0000F909BCFA090EE03B090EF03C090F00373
:101ED000D090F103E090F203F090F3030091F4034B
:101EE0001091F503FE013D964F01D5CF81E0E196BB
:101EF0000FB6F894DEBF0FBECDBFDF91CF911F911B
:101F00000F91FF90EF90DF90CF90BF90AF909F9098
:101F10008F907F906F905F904F903F902F9008959B
:101F2000FF920F931F93CF93DF93182FF92EEB019E
:101F300000E1080F802F0E94870B682F209799F4EB
:101F40006F7D802F0E942F0A812F9F2D880F991F50
:101F5000FC01E357FC4FD287C187DF91CF911F91DE
:101F60000F91FF9008956062ECCF0F931F93CF9372
:101F7000DF9360E880E10E942F0A60E881E10E941F
:101F80002F0A60E882E10E942F0A60E883E10E9444
:101F90002F0A60E884E10E942F0A60E885E10E9430
:101FA0002F0A60E886E10E942F0A60E887E10E941C
:101FB0002F0A6CE080E10E942F0A6CE081E10E9410
:101FC0002F0A6CE082E10E942F0A6CE083E10E94FC
:101FD0002F0A6CE084E10E942F0A6CE085E10E94E8
:101FE0002F0A6CE086E10E942F0A6CE087E10E94D4
:101FF0002F0A10E000E020E030E24FE550EA62E115
:1020000070E080E090E00E94790A01E010E020E0BA
:1020100030E24FE550EA62E170E080E090E00E943B
:10202000790A1092970310929603109299031092D6
:10203000980310929B0310929A0370E060E090E086
:1020400080E00E94900F70E060E081E090E00E94EC
:10205000900F70E060E082E090E00E94900F70E0EE
:1020600060E083E090E00E94900F70E060E084E028
:1020700090E00E94900F70E060E085E090E00E94A8
:10208000900F61E070E086E090E00E94900F61E0C8
:1020900070E087E090E00E94900F60E082EA0E948A
:1020A0002F0A60E083EA0E942F0A60E084EA0E941F
:1020B0002F0A60E281EB0E942F0A60E881EB0E9408
:1020C0002F0A0CE014E0D0E0C0E0DE0183E0AA0FAC
:1020D000BB1F8A95E1F7A357BC4FFD01799659962E
:1020E0001C92118212821382148215821682178228
:1020F00060E0CE010E94480DF80111928F012196F7
:10210000C330D10511F7DF91CF911F910F91089541
:10211000AF92BF92CF92DF92EF92FF920F931F93F5
:10212000CF93DF93CDB7DEB72C970FB6F894DEBF11
:102130000FBECDBF20915B0230915C02A8EEB3E0F0
:102140000E94781A69877A878B879C87C984DA848A
:10215000EB84FC8480915A0280930B0480EC9CEF0A
:10216000ABE9B1E08093FA039093FB03A093FC03E7
:10217000B093FD031092F7031092F6031092F90347
:102180001092F80310920A041092730210927202D5
:102190001092C1021092E3020E94810884EA96E044
:1021A000909359028093580285EA96E090935702E3
:1021B0008093560280910B0491E09093C00280932B
:1021C000E20281E00E94C00881112DC080E00E94DF
:1021D000870B90E0880F892F881F990B0197B1F327
:1021E00062E987EB0E942F0AC114D104E104F104D3
:1021F00009F4C5C021E8C21623ECD20629ECE20698
:1022000021E0F20608F097C0C092FA03D092FB03D7
:10221000E092FC03F092FD0360E070E0CB010E94CD
:102220005B0B0E94B50F60915F027091600280911C
:102230006102909162020E945B0B40915D0250919D
:102240005E02A12C81EEB82E95EFC92E25E0D22E8C
:10225000E12CF12C00E010E09A0140E050E060E059
:1022600070E080E090E00E94921A29833A834B83C9
:102270005C836D837E838F83988729813A814B812C
:102280005C816D817E818F81988510E000E00E94E5
:10229000790A29813A814B815C816D817E818F81B0
:1022A000988501E010E00E94790A61E070E081E029
:1022B00090E00E94900F61E070E082E090E00E9468
:1022C000900F81E10E94870B682F636081E10E947B
:1022D0002F0A82E10E94870B682F636082E10E94CF
:1022E0002F0A60E090E080E00E94480D61E081E00C
:1022F00090E00E94480D61E082E090E00E94480D6D
:1023000020E031EE45EF55E060E070E080E090E0E5
:102310000E94600D2C960FB6F894DEBF0FBECDBFA5
:10232000DF91CF911F910F91FF90EF90DF90CF90B1
:10233000BF90AF900895D701C6018158934CA94C26
:10234000B1408038934CA94CB14028F4F694E794FE
:10235000D794C79459CFD701C60181509748A34954
:10236000B34081159A45A246B24008F055CF32E0FD
:10237000F694E794D794C7943A95D1F745CF80EC7B
:102380009CEFABE9B1E08093FA039093FB03A09339
:10239000FC03B093FD0340CFFC0101900020E9F75E
:1023A0003197AF01481B590BBC0184EE92E00C94AD
:1023B000A6068F929F92AF92BF920F931F93CF93D7
:1023C000DF93CDB7DEB7A1970FB6F894DEBF0FBE8F
:1023D000CDBF19A2423008F44AE08E010F5D1F4FB5
:1023E000842E912CB12CA12CA50194010E94311AAC
:1023F000E62FB901CA01EA30F4F4E05DD801EE93AA
:102400008D01232B242B252B79F790E080E010976A
:1024100019F0CD010E94CC11A1960FB6F894DEBF41
:102420000FBECDBFDF91CF911F910F91BF90AF90A5
:102430009F908F900895E95CE1CFCF92DF92EF9269
:10244000FF92CF93DF9397FF1BC06B017C016DE27E
:1024500084EE92E00E944607EC0166277727CB01C5
:102460006C197D098E099F094AE00E94D9118C0FD1
:102470009D1FDF91CF91FF90EF90DF90CF90089557
:102480004AE0DF91CF91FF90EF90DF90CF900C94D6
:10249000D911462F682F70E090E080E00C94D9119C
:1024A0000C94CC110F931F93CF93DF9300D000D0E7
:1024B000CDB7DEB769837A838B839C8349815A8148
:1024C0006B817C810AE512E0F80185819681A78104
:1024D000B085840F951FA61FB71F85839683A7839A
:1024E000B08787E491E00E945012F80165817681FF
:1024F000878190850E941D128CE591E00E94501208
:102500000E94881060910101709102018091030185
:102510009091040124E630E040E050E00E94EA1A85
:1025200002E010E00E94600D0F900F900F900F904E
:10253000DF91CF911F910F9108950F931F93CF9328
:10254000DF938C01D0E0C0E0F801EC0FFD1F649137
:10255000662341F084EE92E00E944607892B11F039
:102560002196F2CF8BE591E00E94CC118C0F9D1F3C
:10257000DF91CF911F910F91089585ED8093BC005D
:102580008091BC029091BD02A091BE02B091BF02A9
:102590000796A11DB11D23E0B695A7959795879540
:1025A0002A95D1F72091BC0024FD03C01092BA02F5
:1025B00008954091BC025091BD026091BE0270919D
:1025C000BF02452B462B472B69F30097A105B105A8
:1025D00041F02AE22A95F1F700C00197A109B1095B
:1025E000E1CF8091BB020C949F08FF920F931F9341
:1025F000CF93DF930AE512E0D0E0C0E0F801F1905C
:102600008F01CE010E941B1AF81621F06F2DCE010A
:102610000E94231A2196C930D10581F70E94B50F77
:10262000DF91CF911F910F91FF900C9424081F927E
:102630000F920FB60F9211242F933F934F935F93F6
:102640006F937F938F939F93AF93BF93EF93FF937A
:1026500084EE92E00E942407FF91EF91BF91AF9129
:102660009F918F917F916F915F914F913F912F91AA
:102670000F900FBE0F901F9018951F920F920FB6DC
:102680000F9211242F938F939F93EF93FF93E091D9
:10269000F402F091F5028081E091FA02F091FB02E0
:1026A00082FD1BC090818091FD028F5F8F7320910E
:1026B000FE02821741F0E091FD02F0E0EC51FD4F87
:1026C000958F8093FD02FF91EF919F918F912F91B4
:1026D0000F900FBE0F901F9018958081F4CF1F921E
:1026E0000F920FB60F9211242F933F938F939F93C6
:1026F000AF93BF9380914E0290914F02A0915002F0
:10270000B091510230914D0223E0230F2D3758F53F
:102710000196A11DB11D20934D0280934E0290930E
:102720004F02A0935002B0935102809152029091B7
:102730005302A0915402B09155020196A11DB11D02
:102740008093520290935302A0935402B093550287
:10275000BF91AF919F918F913F912F910F900FBE9D
:102760000F901F90189526E8230F0296A11DB11D0A
:10277000D2CF1F920F920FB60F9211242F933F9337
:102780004F935F936F937F938F939F93AF93BF9379
:10279000EF93FF938091B900887F803609F44AC097
:1027A000F0F5883209F4A7C018F5803109F49BC010
:1027B000B8F4882309F4F9C0883009F494C0FF9173
:1027C000EF91BF91AF919F918F917F916F915F91A9
:1027D0004F913F912F910F900FBE0F901F90189522
:1027E000883109F488C0803251F78093B80214C050
:1027F000803409F49DC040F48033B9F38833F9F68E
:102800008093B80285ECB0C0803509F485C0883566
:1028100009F496C0883499F60E94BD12D0CF883949
:1028200009F48CC038F5883729F050F4883611F057
:10283000803729F683E08093BA0210924C0257C089
:10284000883809F47BC0803919F0803809F0B7CF97
:1028500080914C02803208F071C0E0914C0281E01E
:102860008E0F80934C028091BB00F0E0E45DFD4F41
:1028700080833DC0803B39F0E0F4803A09F479C0B0
:10288000883A09F09CCF84E08093BA0210922B0220
:1028900010922A02E0915802F09159020995809114
:1028A0002A0281110FC081E080932A0210920A024D
:1028B00009C0803C09F4A6CF883C09F4A3CF883B2B
:1028C00009F07DCFE0912B0281E08E0F80932B02E7
:1028D000F0E0E65FFD4F80818093BB0090912B027A
:1028E00080912A0229C0809195028093BB0085ECDB
:1028F0008093BC0064CF9091B7028091B602981784
:1029000058F5E091B70281E08E0F8093B702F0E0B6
:10291000EA56FD4F8081E9CFE091B70281E08E0F4A
:102920008093B7028091BB00F0E0EA56FD4F8083B0
:102930009091B7028091B6029817C8F285E8D8CF77
:10294000E091B70281E08E0F8093B7028091BB00C7
:10295000F0E0EA56FD4F80838091B90281115CCF8F
:1029600081E08093940284EA8093BC001092BA02C2
:1029700026CF85EC8093BC001092BA0280914C0265
:10298000803230F4E0914C02F0E0E45DFD4F1082C3
:1029900060914C0270E0E0915602F09157028CE297
:1029A00092E0099510924C020ACF1092B80234CFEF
:1029B0001F920F920FB60F9211242F933F934F93B4
:1029C0005F936F937F938F939F93AF93BF93CF93B7
:1029D000EF93FF93809108028F5F809308028091AC
:1029E0000802823390F080911A01813061F4C09125
:1029F00000016C2F809119010E94B30781E0C11181
:102A000080E0809300011092080287E28093B30077
:102A1000FF91EF91CF91BF91AF919F918F917F9156
:102A20006F915F914F913F912F910F900FBE0F903B
:102A30001F901895E4EEF2E01382128288EE93E084
:102A4000A0E0B0E084839583A683B78327E231E0DA
:102A50003183208325EC30E03587248724EC30E077
:102A60003787268720EC30E0318B208B21EC30E05B
:102A7000338B228B22EC30E0358B248B26EC30E03C
:102A8000378B268B118E128E138E148EE1E8F3E0B5
:102A90001382128284839583A683B78389E391E0AE
:102AA00091838083EDE8F3E085E0DF011D928A9554
:102AB000E9F715821682178210860895789484B5F6
:102AC000826084BD84B5816084BD85B5826085BD2A
:102AD00085B5816085BD80916E00816080936E00B8
:102AE00010928100809181008260809381008091AA
:102AF000810081608093810080918000816080935B
:102B000080008091B10084608093B1008091B0001A
:102B100081608093B00080917A00846080937A0015
:102B200080917A00826080937A0080917A0081603F
:102B300080937A0080917A00806880937A00109266
:102B4000C1000FB6F894A8958091600088618093C9
:102B50006000109260000FBEE091F402F091F50267
:102B6000C2E0C083E091F402F091F5021082E0919E
:102B7000F002F091F1021082E091F202F091F30282
:102B800080E180831092FC02E091F802F091F9025A
:102B900086E08083E091F602F091F7028081806107
:102BA0008083E091F602F091F70280818860808353
:102BB000E091F602F091F702808180688083E091D5
:102BC000F602F091F70280818F7D80838EE591E09F
:102BD0000E94501262E070E080E090E00E941D12BE
:102BE0008CE591E00E945012F894789480E10E9464
:102BF000850681E10E948506F8941092B00010923B
:102C0000B10087E28093B300C093B00087E0809367
:102C1000B1008091700082608093700078940AE522
:102C200012E0D0E0C0E0CE010E941B1AF8018193AF
:102C30008F012196C930D105B1F780915A028036B3
:102C400089F18F3679F1109273021092720210920C
:102C5000C1021092E3020E94810884EA96E09093F8
:102C600059028093580285EA96E090935702809328
:102C7000560280E791E00E945012C1E0C093C0026A
:102C800080E68093E2021092C1021092E30281E09A
:102C90000E94C00881114BC080E680935A0260E117
:102CA00070E008C08CE891E00E94501260E170E092
:102CB00080915A020E9449128CE591E00E945012C4
:102CC00083EB91E00E94501260915B0270915C0274
:102CD00090E080E04AE00E94D9118EEC91E00E94E1
:102CE000501284ED91E00E94501260915D0270914B
:102CF0005E0290E080E04AE00E94D9118BEE91E004
:102D00000E94501287E491E00E94501260915F028D
:102D10007091600280916102909162020E941D1286
:102D20008CE591E00E9450120E94881013C0C0935D
:102D3000C0028FE68093E2021092C1021092E30279
:102D400081E00E94C008882309F477C087EA91E0F7
:102D50000E94501284EA91E00E949D1283E591E066
:102D60000E949D128CE091E00E949D128AEE90E0FC
:102D70000E949D1286EC90E00E949D1282EA90E0F3
:102D80000E949D128CE790E00E949D1288E19EE0D7
:102D90000FB6F894A895809360000FBE90936000E2
:102DA00028EE222E23E0322E812C30E1932E3EE5B8
:102DB000A32E3FE5B32E48EA642E41E6742E90E040
:102DC000C92E90E0D92EA895D0E0C0E08AE0482E28
:102DD00084EE92E00E940407181619060CF08BC2CC
:102DE00084EE92E00E94E206582E8E010F5F1F4F84
:102DF000EFE9E80FCB5FDE4FE73108F06FC00E2E32
:102E0000000CFF0BEA5FF84E0C94721A4B175F1719
:102E10006E175517321737173C1741176E1746179D
:102E20006E176E17691764176E176E171F176E17D8
:102E300050176E176E175A172D178FE62ECF6FEF9C
:102E40007FEFCB010E9452125882E8010431110534
:102E50000CF4BECFC3E1D0E0BBCF66EF7FEF8FEFC6
:102E60009FEFF0CF6CE97FEF8FEF9FEFEBCF68E143
:102E70007CEF8FEF9FEFE6CF60EF78ED8FEF9FEF66
:102E8000E1CF60E679E78EEF9FEFDCCF60EC7DEB82
:102E900080EF9FEFD7CF61E070E080E090E0D2CF8D
:102EA0006AE070E080E090E0CDCF64E670E080E022
:102EB00090E0C8CF68EE73E080E090E0C3CF60E1BF
:102EC00077E280E090E0BECF60EA76E881E090E0D3
:102ED000B9CF60E472E48FE090E0B4CFFBE35F121F
:102EE000B3CF5882F801EB5FFE4F1082809105014D
:102EF000823539F580910601843509F0F6C180915B
:102F000007018B33B9F42FEF20935A0270925C02C1
:102F100060925B0240E253E050935E0240935D0298
:102F200010925F021092600210926102109262028F
:102F30000E94F51284EE92E00E949307D0E0C0E078
:102F400047CF8535B9F780910601833409F06BC00E
:102F500080910C018B3371F780910701805380932E
:102F60006602809108018053809367028091090175
:102F700080538093680280910A0180538093690294
:102F800080910B01805380936A0281EF91E00E944F
:102F900050126AE070E0809166020E9449126AE075
:102FA00070E0809167020E9449126AE070E08091AF
:102FB00068020E9449126AE070E0809169020E94F2
:102FC00049126AE070E080916A020E94491284EF1F
:102FD00091E00E94501220916602E0E1F7E22E9FFC
:102FE000C0012F9F900D112440916702429D9001D6
:102FF000439D300D1124820F931F20916A02820F8E
:10300000911D20916902249D800D911D1124209114
:103010006802F4E62F9F800D911D112490935C02AD
:1030200080935B0285CF8B3431F4809107018B3321
:1030300009F080CF7DCF8F3409F011C1809112014A
:103040008B3309F077CF809107018053809363021F
:10305000809108018053809364028091090180531C
:103060008093650280910A0180538093660280916B
:103070000B0180538093670280910C0180538093F1
:10308000680280910D0180538093690280910E0146
:10309000805380936A0280910F01805380936B026A
:1030A00080911001805380936C02809111018053B4
:1030B00080936D0286EF91E00E9450126FE484EEDF
:1030C00092E00E9446076AE070E0809163020E94ED
:1030D00049126AE070E0809164020E9449126AE03D
:1030E00070E0809165020E9449126AE070E0809170
:1030F00066020E9449126AE070E0809167020E94B5
:1031000049126AE070E0809168020E9449126AE008
:1031100070E0809169020E9449126AE070E080913B
:103120006A020E9449126AE070E080916B020E947C
:1031300049126AE070E080916C020E9449126AE0D4
:1031400070E080916D020E94491284EF91E00E942C
:103150005012A0916402B0E020E03AEC4AE95BE34F
:103160000E94871A7B018C01A0916502B0E020E0EB
:1031700031EE45EF55E00E94871A6E0D7F1D801FCE
:10318000911F20916D027B018C01E20EF11C011D4B
:10319000111DA0916702B0E020E432E44FE050E05E
:1031A0000E94871AE60EF71E081F191FA0916602DB
:1031B000B0E020E836E948E950E00E94871AE60EC0
:1031C000F71E081F191F2091690230E0A0E1B7E245
:1031D0000E94781AE60EF71E081F191FA0916802B8
:1031E000B0E020EA36E841E050E00E94871AE60E9F
:1031F000F71E081F191F20916B0230E0A4E6B0E013
:103200000E94781AE60EF71E081F191F20916A0205
:1032100030E0A8EEB3E00E94781AE60EF71E081F11
:10322000191F20916C0230E0AAE0B0E00E94781AE9
:103230006E0D7F1D801F911F60930101709302012D
:10324000809303019093040124E630E040E050E0D5
:103250000E94EA1A02E010E00E94600D6BCE8035F9
:1032600009F068CE80910A018B3309F063CE80911A
:1032700007018053809365028091080180538093F9
:1032800066028091090180538093670288EF91E084
:103290000E9450126AE070E0809165020E9449121B
:1032A0006AE070E0809166020E9449126AE070E074
:1032B000809167020E94491284EF91E00E945012AF
:1032C0002091650280916602849DC001112434E63C
:1032D000239F800D911D112420916702820F911D63
:1032E00090935E0280935D0223CE8B3309F022CE51
:1032F0000E9424081FCECAE0D0E0109285001092F0
:10330000840000B605FE07C080918400909185007E
:10331000893E9D4FB0F300B605FC07C08091840044
:1033200090918500893E9D4FB0F3109285001092D8
:10333000840000B605FE07C080918400909185004E
:10334000893E9D4FB0F3809186009091870000B632
:1033500005FC07C02091840030918500293E3D4F37
:10336000B0F300B605FE07C02091840030918500BF
:10337000293E3D4FB0F32091860030918700409167
:10338000840050918500483E5D4F08F052C0281BD4
:10339000390B50E040E0C501B4010E94531A2033BC
:1033A00087E5380785E0480751058CF520936E02C4
:1033B00030936F02409370025093710261E081E19B
:1033C0000E94B30782E080931A0181E18093190182
:1033D0008BEF91E00E94501260916E0270916F022B
:1033E00080917002909171024AE00E94D9118CE59F
:1033F00091E00E945012C114D10409F4E4CC0E945F
:103400001007882309F4DBCC0E940000D8CC10926E
:103410006E0210926F021092700210927102209749
:1034200009F06BCF81E080931A0181E1809319014B
:10343000E2CF2197F4CFF999FECF92BD81BDF89AE2
:10344000992780B50895262FF999FECF1FBA92BD0E
:1034500081BD20BD0FB6F894FA9AF99A0FBE019675
:103460000895A1E21A2EAA1BBB1BFD010DC0AA1FC5
:10347000BB1FEE1FFF1FA217B307E407F50720F0DD
:10348000A21BB30BE40BF50B661F771F881F991F58
:103490001A9469F760957095809590959B01AC01A1
:1034A000BD01CF010895052E97FB1EF400940E94E4
:1034B0006A1A57FD07D00E94311A07FC03D04EF458
:1034C0000C946A1A50954095309521953F4F4F4F77
:1034D0005F4F089590958095709561957F4F8F4FC0
:1034E0009F4F0895EE0FFF1F0590F491E02D099472
:1034F000A29FB001B39FC001A39F700D811D112435
:10350000911DB29F700D811D1124911D08950E947F
:10351000781AA59F900DB49F900DA49F800D911DCA
:1035200011240895DF93CF931F930F939A9DF02D4D
:10353000219FF00D8B9DF00D8A9DE02DF10D039FD5
:10354000F00D029FE00DF11D4E9DE00DF11D5E9D01
:10355000F00D4F9DF00D7F936F93BF92AF925F93ED
:103560004F93D5010E94781A8B01AC01D7010E94BC
:10357000781AEB01E80FF91FD6010E94E11A2F918A
:103580003F91D6010E94781AC60FD71FE81FF91F76
:10359000AF91BF910E94E11A2F913F910E94781A3A
:1035A000C60FD71FE81FF91FD6010E94781AE60F31
:1035B000F71F9801BE01CF010F911F91CF91DF91AD
:1035C00008950E94781A460F571FC81FD91F08F484
:1035D00031960895E894DF93CF93FC01DB010E94BC
:1035E000781A7F936F93E9019A01AC01BF93AF936F
:1035F0003F932F93DF010E94781A26F46C1B7D0BFA
:10360000820B930B9E01EB01FC010E94E11AAF912A
:10361000BF912F913F910E94E11ABE01CF01F901A4
:103620002F913F91CF91DF910895689401C0E89464
:10363000F92FF12B12F00C94491BA0E0B0E0E3E26B
:10364000FBE10C94BB1B092E059422F40E94A51BE0
:10365000112392F4F0E80F26FFEFE094F094009528
:103660001095B094C094D094A194BF0ACF0ADF0AF9
:10367000EF0AFF0A0F0B1F0B0E94541B07FC0E944E
:10368000A51BCDB7DEB7ECE00C94D71B689401C046
:10369000E8948F929F92CF93DF930E94541BDF9107
:1036A000CF919F908F90089588249924F401E4018C
:1036B000B0E49F93AA279A158B049C04ED05FE05A0
:1036C000CF05D007A10798F4AD2FDC2FCF2FFE2F09
:1036D000E92D982C892E982F872F762F652F542F20
:1036E000432F322F2227B85031F7BF9127C01B2E0E
:1036F000BF91BB27220F331F441F551F661F771F23
:10370000881F991F881C991CEE1FFF1FCC1FDD1FEF
:10371000AA1FBB1F8A149B04EC05FD05CE05DF051F
:10372000A007B10748F08A189B08EC09FD09CE09EB
:10373000DF09A00BB10B21601A94E1F62EF494017D
:10374000AF01BE01CD01000C089560957095809584
:10375000909530954095509521953F4F4F4F5F4F35
:103760006F4F7F4F8F4F9F4F08952F923F924F92F1
:103770005F926F927F928F929F92AF92BF92CF9201
:10378000DF92EF92FF920F931F93CF93DF93CDB70A
:10379000DEB7CA1BDB0B0FB6F894DEBF0FBECDBF82
:1037A00009942A88398848885F846E847D848C8453
:1037B0009B84AA84B984C884DF80EE80FD800C815C
:1037C0001B81AA81B981CE0FD11D0FB6F894DEBF3F
:1037D0000FBECDBFED010895002E083090F0982F58
:1037E000872F762F652F542F432F322F22270850F3
:1037F000F4CF220F331F441F551F661F771F881FEA
:10380000991F0A95B2F7002D089597FD1094002E88
:10381000083098F00850232F342F452F562F672F4C
:10382000782F892F912DF4CF1594979587957795BB
:10383000679557954795379527950A95AAF71124C7
:10384000002D08952A0D3B1D4C1D5D1D6E1D7F1D15
:10385000801F911F08950024A7FD00942A0F301D9A
:10386000401D501D601D701D801D901D0895002479
:10387000A7FD00942A173005400550056005700526
:0A388000800590050895F894FFCF2D
:10388A00018096980030000000000000000000004F
:10389A0000000000000000000011012C343C444CE0
:1038AA00545C5C000000004607A606D30693070492
:1038BA0007E206F60600000000000AD309840BB0EE
:1038CA00093801C009B10953493533353120436FED
:1038DA007272656374696F6E3A20000D0A00414482
:1038EA005839383820494E4954207665722E2000BE
:1038FA005363616E6564205349353335312069322B
:10390A006320616464726573733A2000536176655B
:10391A006420534935333531206932632061646448
:10392A00726573733A2000204E6F7420466F756E6D
:10393A00640A00534935333531204372797374610F
:10394A006C204672657175656E63793A20006B4822
:10395A007A200A0053493533353120504C4C2046E1
:10396A0072657175656E63793A20004D687A200A2E
:10397A00005543003B0055005550004652455155ED
:08398A00454E43593A200000AC
:00000001FF
